:100000000C942A000C9447000C9447000C94470071
:100010000C9447000C9447000C9447000C94470044
:100020000C9447000C9447000C9447000C94470034
:100030000C9447000C9447000C9447000C94470024
:100040000C9447000C9447000C9447000C94470014
:100050000C94470011241FBECFE5D8E0DEBFCDBF12
:1000600010E0A0E6B0E0EEE6F7E002C005900D92E9
:10007000AE37B107D9F720E0AEE7B0E001C01D927E
:10008000AF37B207E1F70E9498030C94B5030C94C4
:1000900000000E949F0340E060E083E00E94A9010D
:1000A00041E061E083E00E94A90141E063E083E078
:1000B0000E94A90141E062E082E00E94A90141E0C2
:1000C00067E082E00E94A90141E064E083E00E94D1
:1000D000A90141E065E083E00E94A90141E063E0FD
:1000E00082E00E94A90141E064E082E00E94A9014F
:1000F00041E065E082E00E94A90141E066E082E023
:100100000E94A90141E066E082E00E94A90141E06D
:1001100064E080E00E94A90141E065E080E00E9487
:10012000A90141E066E080E00E94A90141E067E0AA
:1001300080E00E94A90141E061E081E00E94A90104
:1001400041E062E081E00E94A90141E063E081E0DA
:100150000E94A9010E9403030895CF93DF9300D06A
:10016000CDB7DEB79A83898341E064E083E00E94E3
:100170001F0241E065E083E00E941F02CE0101966C
:100180000E94AD0389819A818136910551F50E94C3
:100190008E0380E690E00E94780341E062E082E016
:1001A0000E941F0240E067E082E00E941F0240E0E0
:1001B00063E083E00E941F0241E063E082E00E946E
:1001C0001F0240E064E082E00E941F0240E065E020
:1001D00082E00E941F0240E066E082E00E941F026F
:1001E000B3C08236910551F50E948E0386E690E0F9
:1001F0000E94780341E062E082E00E941F0241E039
:1002000067E082E00E941F0241E063E083E00E9419
:100210001F0241E063E082E00E941F0240E064E0D0
:1002200082E00E941F0241E065E082E00E941F021E
:1002300040E066E082E00E941F0286C0833691059E
:1002400051F50E948E038EE690E00E94780340E014
:1002500062E082E00E941F0240E067E082E00E94CC
:100260001F0240E063E083E00E941F0240E063E081
:1002700082E00E941F0240E064E082E00E941F02D0
:1002800040E065E082E00E941F0240E066E082E01C
:100290000E941F0259C08436910551F50E948E03B9
:1002A00083E790E00E94780340E062E082E00E94F1
:1002B0001F0240E067E082E00E941F0241E063E02D
:1002C00083E00E941F0240E063E082E00E941F0280
:1002D00040E064E082E00E941F0241E065E082E0CD
:1002E0000E941F0240E066E082E00E941F022CC0D4
:1002F0008536910549F50E948E0388E790E00E94BB
:10030000780340E062E082E00E941F0241E067E083
:1003100082E00E941F0240E063E083E00E941F022F
:1003200040E063E082E00E941F0241E064E082E07E
:100330000E941F0240E065E082E00E941F0241E04F
:1003400066E082E00E941F020F900F90DF91CF9134
:100350000895843008F072C0683008F06FC04230F1
:1003600008F06CC0813001F130F08230B1F183309F
:1003700009F44CC00895413059F42AB381E090E06B
:1003800002C0880F991F6A95E2F7822B8ABB0895F5
:100390002AB381E090E002C0880F991F6A95E2F7C6
:1003A000809582238ABB0895413059F427B381E0B8
:1003B00090E002C0880F991F6A95E2F7822B87BBF5
:1003C000089527B381E090E002C0880F991F6A95D5
:1003D000E2F78095822387BB0895413059F424B316
:1003E00081E090E002C0880F991F6A95E2F7822BA6
:1003F00084BB089524B381E090E002C0880F991F68
:100400006A95E2F78095822384BB0895413059F4C0
:1004100021B381E090E002C0880F991F6A95E2F74E
:10042000822B81BB089521B381E090E002C0880F48
:10043000991F6A95E2F78095822381BB08958430E5
:1004400008F072C0683008F06FC0423008F06CC02D
:10045000813001F130F08230B1F1833009F44CC0C9
:100460000895413059F42BB381E090E002C0880F29
:10047000991F6A95E2F7822B8BBB08952BB381E01D
:1004800090E002C0880F991F6A95E2F78095822359
:100490008BBB0895413059F428B381E090E002C04D
:1004A000880F991F6A95E2F7822B88BB089528B3BD
:1004B00081E090E002C0880F991F6A95E2F780956D
:1004C000822388BB0895413059F425B381E090E040
:1004D00002C0880F991F6A95E2F7822B85BB0895A9
:1004E00025B381E090E002C0880F991F6A95E2F77A
:1004F0008095822385BB0895413059F422B381E071
:1005000090E002C0880F991F6A95E2F7822B82BBA8
:10051000089522B381E090E002C0880F991F6A9588
:10052000E2F78095822382BB0895CF93C82F80FD88
:1005300006C040E064E080E00E941F0205C041E088
:1005400064E080E00E941F02C1FD06C040E065E05B
:1005500080E00E941F0205C041E065E080E00E944B
:100560001F02C2FD06C040E066E080E00E941F025C
:1005700005C041E066E080E00E941F02C3FD06C0A6
:1005800040E067E080E00E941F0205C041E067E0B4
:1005900080E00E941F02CF910895CF93C82F40E0C2
:1005A00061E081E00E941F0240E062E081E00E9481
:1005B0001F028C2F82958F700E94950241E063E0AC
:1005C00081E00E941F028FE99FE00197F1F700C0D0
:1005D000000040E063E081E00E941F028C2F0E9437
:1005E000950241E063E081E00E941F028FE99FE0F5
:1005F0000197F1F700C0000040E063E081E00E9455
:100600001F02CF9108952FE785EB91E021508040A4
:100610009040E1F700C0000040E061E081E00E940E
:100620001F0240E062E081E00E941F0282E00E941F
:10063000950241E063E081E00E941F028FE99FE0A4
:100640000197F1F700C0000040E063E081E00E9404
:100650001F0288E20E94CD0290EF9A95F1F78FE099
:100660000E94CD0220EF2A95F1F781E00E94CD0291
:100670008FE39FE10197F1F700C0000086E00E9440
:10068000CD020895CF93C82F41E061E081E00E9440
:100690001F0240E062E081E00E941F028C2F8295E1
:1006A0008F700E94950241E063E081E00E941F028A
:1006B0008FE99FE00197F1F700C0000040E063E0A0
:1006C00081E00E941F028C2F0E94950241E063E0AE
:1006D00081E00E941F028FE99FE00197F1F700C0BF
:1006E000000040E063E081E00E941F02CF91089586
:1006F0000F931F93CF93009729F40CC00E944203DD
:10070000CF5F02C08C01C0E0F801EC0FF11D8081C9
:100710008111F4CFCF911F910F91089581E00E9434
:10072000CD028FE39FE10197F1F700C0000008952B
:100730000E9449008EE790E00E94AD00FBCF86E862
:1007400080BD8AB18B7F8AB987E689B98AB1886012
:100750008AB98AB180618AB90895009729F05F9BB0
:0E076000FECF2CB1FC0120830895F894FFCF4A
:10076E00524947485400464F525741454400494468
:0E077E004C45004C454654004241434B0000A0
:00000001FF
