S00E00006469726563742E737265639B
S11300000C942A000C943C000C943C000C943C008E
S11300100C943C000C943C000C943C000C943C006C
S11300200C943C000C943C000C943C000C943C005C
S11300300C943C000C943C000C943C000C943C004C
S11300400C943C000C943C000C943C000C943C003C
S11300500C943C0011241FBECFE5D8E0DEBFCDBF19
S113006020E0A0E6B0E001C01D92A437B207E1F79A
S11300700E94EC020C9441030C94000087B180644C
S113008087B987B18F7787B987B18F7D87B986B1F3
S11300908F7D86B986B1816086B986B1826086B962
S11300A086B1846086B986B1806886B90895803245
S11300B0B0F46115710599F097B1907E97B997B135
S11300C0892B87B986B1806486B9349BFECF86B10B
S11300D0806186B984B195B1FB01918380830895D1
S11300E0843008F072C0683008F06FC0423008F005
S11300F06CC0813001F130F08230B1F1833009F409
S11301004CC00895413059F42AB381E090E002C014
S1130110880F991F6A95E2F7822B8ABB08952AB348
S113012081E090E002C0880F991F6A95E2F78095FC
S113013082238ABB0895413059F427B381E090E0CB
S113014002C0880F991F6A95E2F7822B87BB089536
S113015027B381E090E002C0880F991F6A95E2F707
S11301608095822387BB0895413059F424B381E0FC
S113017090E002C0880F991F6A95E2F7822B84BB36
S1130180089524B381E090E002C0880F991F6A9516
S1130190E2F78095822384BB0895413059F421B35A
S11301A081E090E002C0880F991F6A95E2F7822BE4
S11301B081BB089521B381E090E002C0880F991FAC
S11301C06A95E2F78095822381BB0895843008F014
S11301D072C0683008F06FC0423008F06CC08130E3
S11301E001F130F08230B1F1833009F44CC008954C
S11301F0413059F42BB381E090E002C0880F991F7D
S11302006A95E2F7822B8BBB08952BB381E090E0D3
S113021002C0880F991F6A95E2F7809582238BBBF1
S11302200895413059F428B381E090E002C0880F6A
S1130230991F6A95E2F7822B88BB089528B381E061
S113024090E002C0880F991F6A95E2F78095822397
S113025088BB0895413059F425B381E090E002C091
S1130260880F991F6A95E2F7822B85BB089525B301
S113027081E090E002C0880F991F6A95E2F78095AB
S1130280822385BB0895413059F422B381E090E084
S113029002C0880F991F6A95E2F7822B82BB0895EA
S11302A022B381E090E002C0880F991F6A95E2F7BB
S11302B08095822382BB089540E060E083E00E9441
S11302C0700041E061E083E00E94700041E062E080
S11302D082E00E94700041E067E082E00E947000CA
S11302E041E063E083E00E9470000E943E0040E031
S11302F065E080E00E94700040E066E080E00E94DB
S1130300700040E062E080E00E94700040E067E03E
S113031080E00E94700040E064E080E00E94700091
S11303200E94190340E060E083E00E94700041E015
S113033061E083E00E9470000895AF92BF92CF9273
S1130340DF92EF92FF920F931F93CF93DF93CDB77A
S1130350DEB72A970FB6F894DEBF0FBECDBF9A83DF
S113036089837C836B835E834D8338872F831A87CD
S11303700987BE016F5F7F4F84E00E945700A98107
S1130380BA8128E833E10E942B03DC01CB01072E5C
S11303907AE0B695A795979587957A95D1F7702DBC
S11303A08C01BE016D5F7F4F85E00E945700AB81D9
S11303B0BC8128E833E10E942B03DC01CB01072E2A
S11303C07AE0B695A795979587957A95D1F7702D8C
S11303D07C01BE016B5F7F4F86E00E945700AD81B8
S11303E0BE8128E833E10E942B03DC01CB01072EF8
S11303F07AE0B695A795979587957A95D1F7702D5C
S11304006C01BE01695F7F4F87E00E945700AF8196
S1130410B88528E833E10E942B03DC01CB01072EC9
S11304207AE0B695A795979587957A95D1F7702D2B
S11304305C01BE01675F7F4F82E00E945700063F68
S113044089E0180710F58DEFE81688E0F806E8F063
S113045087EFC81689E0D806C0F087EFA81689E0B0
S1130460B80698F081E60E94270341E062E082E04A
S11304700E94E60040E067E082E00E94E60040E07F
S113048063E083E00E94E60096C088E9E81688E00D
S1130490F80608F5023989E01807E8F486EFC8166B
S11304A089E0D806C0F488E2A8168AE0B80698F471
S11304B082E60E94270341E062E082E00E94E600B7
S11304C041E067E082E00E94E60041E063E083E00F
S11304D00E94E60070C085ECC81689E0D80608F1D1
S11304E0053C89E01807E8F089EEE81688E0F8068C
S11304F0C0F089E2A8168AE0B80698F083E60E9464
S1130500270340E062E082E00E94E60040E067E00A
S113051082E00E94E60040E063E083E00E94E6009F
S11305204AC086EFA81689E0B80608F5053C89E0BC
S11305301807E8F089EEE81688E0F806C0F085ECC4
S1130540C81689E0D80698F084E60E94270340E0A4
S113055062E082E00E94E60040E067E082E00E9400
S1130560E60041E063E083E00E94E60024C088E9FD
S1130570E81688E0F806F8F401301A40E0F089E261
S1130580A8168AE0B806B8F085ECC81689E0D80643
S113059090F085E60E94270340E062E082E00E943A
S11305A0E60041E067E082E00E94E60040E063E0AC
S11305B083E00E94E6002A960FB6F894DEBF0FBED1
S11305C0CDBFDF91CF911F910F91FF90EF90DF90FE
S11305D0CF90BF90AF9008950E945C0182E790E0B5
S11305E09F938F930F2EF4E68F2EF0E09F2EF02D25
S11305F00F2EFAE6AF2EF0E0BF2EF02D0F2EF2E60E
S1130600CF2EF0E0DF2EF02D0F2EFEE6EF2EF0E0E1
S1130610FF2EF02D0CE610E020E730E046E650E037
S113062060E670E088E690E00E949D010F900F90D4
S1130630D5CF86E880BD8AB18B7F8AB987E689B930
S11306408AB188608AB98AB180618AB908958CB9FF
S11306505D9BFECF08950E943203B7FF0895821B6D
S1130660930B0895A29FB001B39FC001A39F700D87
S1130670811D1124911DB29F700D811D1124911DA6
S10906800895F894FFCF79
S9030000FC
